{
  "contractName": "SokuCrowdsale",
  "abi": [
    {
      "inputs": [
        {
          "internalType": "uint256",
          "name": "_rate",
          "type": "uint256"
        },
        {
          "internalType": "address payable",
          "name": "_wallet",
          "type": "address"
        },
        {
          "internalType": "contract BEP20",
          "name": "_token",
          "type": "address"
        },
        {
          "internalType": "uint256",
          "name": "_goal",
          "type": "uint256"
        },
        {
          "internalType": "uint256",
          "name": "_cap",
          "type": "uint256"
        }
      ],
      "stateMutability": "nonpayable",
      "type": "constructor"
    },
    {
      "anonymous": false,
      "inputs": [],
      "name": "Finalized",
      "type": "event"
    },
    {
      "anonymous": false,
      "inputs": [
        {
          "indexed": true,
          "internalType": "address",
          "name": "previousOwner",
          "type": "address"
        },
        {
          "indexed": true,
          "internalType": "address",
          "name": "newOwner",
          "type": "address"
        }
      ],
      "name": "OwnershipTransferred",
      "type": "event"
    },
    {
      "anonymous": false,
      "inputs": [
        {
          "indexed": true,
          "internalType": "address",
          "name": "purchaser",
          "type": "address"
        },
        {
          "indexed": true,
          "internalType": "address",
          "name": "beneficiary",
          "type": "address"
        },
        {
          "indexed": false,
          "internalType": "uint256",
          "name": "value",
          "type": "uint256"
        },
        {
          "indexed": false,
          "internalType": "uint256",
          "name": "amount",
          "type": "uint256"
        }
      ],
      "name": "TokenPurchase",
      "type": "event"
    },
    {
      "stateMutability": "payable",
      "type": "fallback"
    },
    {
      "inputs": [
        {
          "internalType": "address",
          "name": "_beneficiary",
          "type": "address"
        }
      ],
      "name": "buyTokens",
      "outputs": [],
      "stateMutability": "payable",
      "type": "function"
    },
    {
      "inputs": [],
      "name": "cap",
      "outputs": [
        {
          "internalType": "uint256",
          "name": "",
          "type": "uint256"
        }
      ],
      "stateMutability": "view",
      "type": "function"
    },
    {
      "inputs": [
        {
          "internalType": "address",
          "name": "",
          "type": "address"
        }
      ],
      "name": "contributions",
      "outputs": [
        {
          "internalType": "uint256",
          "name": "",
          "type": "uint256"
        }
      ],
      "stateMutability": "view",
      "type": "function"
    },
    {
      "inputs": [],
      "name": "goal",
      "outputs": [
        {
          "internalType": "uint256",
          "name": "",
          "type": "uint256"
        }
      ],
      "stateMutability": "view",
      "type": "function"
    },
    {
      "inputs": [],
      "name": "investorHardCap",
      "outputs": [
        {
          "internalType": "uint256",
          "name": "",
          "type": "uint256"
        }
      ],
      "stateMutability": "view",
      "type": "function"
    },
    {
      "inputs": [],
      "name": "investorMinCap",
      "outputs": [
        {
          "internalType": "uint256",
          "name": "",
          "type": "uint256"
        }
      ],
      "stateMutability": "view",
      "type": "function"
    },
    {
      "inputs": [],
      "name": "isFinalized",
      "outputs": [
        {
          "internalType": "bool",
          "name": "",
          "type": "bool"
        }
      ],
      "stateMutability": "view",
      "type": "function"
    },
    {
      "inputs": [],
      "name": "owner",
      "outputs": [
        {
          "internalType": "address",
          "name": "",
          "type": "address"
        }
      ],
      "stateMutability": "view",
      "type": "function"
    },
    {
      "inputs": [],
      "name": "rate",
      "outputs": [
        {
          "internalType": "uint256",
          "name": "",
          "type": "uint256"
        }
      ],
      "stateMutability": "view",
      "type": "function"
    },
    {
      "inputs": [],
      "name": "renounceOwnership",
      "outputs": [],
      "stateMutability": "nonpayable",
      "type": "function"
    },
    {
      "inputs": [],
      "name": "token",
      "outputs": [
        {
          "internalType": "contract BEP20",
          "name": "",
          "type": "address"
        }
      ],
      "stateMutability": "view",
      "type": "function"
    },
    {
      "inputs": [
        {
          "internalType": "address",
          "name": "newOwner",
          "type": "address"
        }
      ],
      "name": "transferOwnership",
      "outputs": [],
      "stateMutability": "nonpayable",
      "type": "function"
    },
    {
      "inputs": [],
      "name": "vault",
      "outputs": [
        {
          "internalType": "contract RefundVault",
          "name": "",
          "type": "address"
        }
      ],
      "stateMutability": "view",
      "type": "function"
    },
    {
      "inputs": [],
      "name": "wallet",
      "outputs": [
        {
          "internalType": "address payable",
          "name": "",
          "type": "address"
        }
      ],
      "stateMutability": "view",
      "type": "function"
    },
    {
      "inputs": [],
      "name": "weiRaised",
      "outputs": [
        {
          "internalType": "uint256",
          "name": "",
          "type": "uint256"
        }
      ],
      "stateMutability": "view",
      "type": "function"
    },
    {
      "stateMutability": "payable",
      "type": "receive"
    },
    {
      "inputs": [],
      "name": "capReached",
      "outputs": [
        {
          "internalType": "bool",
          "name": "",
          "type": "bool"
        }
      ],
      "stateMutability": "view",
      "type": "function"
    },
    {
      "inputs": [],
      "name": "remainingTokens",
      "outputs": [
        {
          "internalType": "uint256",
          "name": "",
          "type": "uint256"
        }
      ],
      "stateMutability": "view",
      "type": "function"
    },
    {
      "inputs": [],
      "name": "claimRefund",
      "outputs": [],
      "stateMutability": "nonpayable",
      "type": "function"
    },
    {
      "inputs": [],
      "name": "goalReached",
      "outputs": [
        {
          "internalType": "bool",
          "name": "",
          "type": "bool"
        }
      ],
      "stateMutability": "view",
      "type": "function"
    },
    {
      "inputs": [],
      "name": "finalize",
      "outputs": [],
      "stateMutability": "nonpayable",
      "type": "function"
    }
  ],
  "bytecode": "0x60806040526702386f26fc10000060065568056bc75e2d631000006007556000600a60146101000a81548160ff0219169083151502179055503480156200004557600080fd5b50604051620027dc380380620027dc833981810160405260a08110156200006b57600080fd5b810190808051906020019092919080519060200190929190805190602001909291908051906020019092919080519060200190929190505050848484600160008190555060008311620000bd57600080fd5b600073ffffffffffffffffffffffffffffffffffffffff168273ffffffffffffffffffffffffffffffffffffffff161415620000f857600080fd5b600073ffffffffffffffffffffffffffffffffffffffff168173ffffffffffffffffffffffffffffffffffffffff1614156200013357600080fd5b8260038190555081600260006101000a81548173ffffffffffffffffffffffffffffffffffffffff021916908373ffffffffffffffffffffffffffffffffffffffff16021790555080600160006101000a81548173ffffffffffffffffffffffffffffffffffffffff021916908373ffffffffffffffffffffffffffffffffffffffff1602179055505050506000620001d16200034660201b60201c565b905080600560006101000a81548173ffffffffffffffffffffffffffffffffffffffff021916908373ffffffffffffffffffffffffffffffffffffffff1602179055508073ffffffffffffffffffffffffffffffffffffffff16600073ffffffffffffffffffffffffffffffffffffffff167f8be0079c531659141344cd1fd0a4f28419497f9722a3daafe3b4186f6b6457e060405160405180910390a35080600881905550600082116200028557600080fd5b600260009054906101000a900473ffffffffffffffffffffffffffffffffffffffff16604051620002b6906200034e565b808273ffffffffffffffffffffffffffffffffffffffff168152602001915050604051809103906000f080158015620002f3573d6000803e3d6000fd5b50600a60006101000a81548173ffffffffffffffffffffffffffffffffffffffff021916908373ffffffffffffffffffffffffffffffffffffffff1602179055508160098190555050505050506200035c565b600033905090565b610f75806200186783390190565b6114fb806200036c6000396000f3fe6080604052600436106101235760003560e01c80638d4e4083116100a0578063ec8ac4d811610064578063ec8ac4d8146103f3578063ed5db87414610437578063f2fde38b14610462578063fbfa77cf146104b3578063fc0c546a146104f457610133565b80638d4e4083146103185780638da5cb5b14610345578063b25d7f5414610386578063b5545a3c146103b1578063bf583903146103c857610133565b80634bb278f3116100e75780634bb278f31461024f5780634f93594514610266578063521eb27314610293578063715018a6146102d45780637d3d6522146102eb57610133565b80632c4e722e1461013e578063355274ea1461016957806340193883146101945780634042b66f146101bf57806342e94c90146101ea57610133565b366101335761013133610535565b005b61013c33610535565b005b34801561014a57600080fd5b5061015361068d565b6040518082815260200191505060405180910390f35b34801561017557600080fd5b5061017e610693565b6040518082815260200191505060405180910390f35b3480156101a057600080fd5b506101a9610699565b6040518082815260200191505060405180910390f35b3480156101cb57600080fd5b506101d461069f565b6040518082815260200191505060405180910390f35b3480156101f657600080fd5b506102396004803603602081101561020d57600080fd5b81019080803573ffffffffffffffffffffffffffffffffffffffff1690602001909291905050506106a5565b6040518082815260200191505060405180910390f35b34801561025b57600080fd5b506102646106bd565b005b34801561027257600080fd5b5061027b6107f2565b60405180821515815260200191505060405180910390f35b34801561029f57600080fd5b506102a8610801565b604051808273ffffffffffffffffffffffffffffffffffffffff16815260200191505060405180910390f35b3480156102e057600080fd5b506102e9610827565b005b3480156102f757600080fd5b506103006109b2565b60405180821515815260200191505060405180910390f35b34801561032457600080fd5b5061032d6109c1565b60405180821515815260200191505060405180910390f35b34801561035157600080fd5b5061035a6109d4565b604051808273ffffffffffffffffffffffffffffffffffffffff16815260200191505060405180910390f35b34801561039257600080fd5b5061039b6109fe565b6040518082815260200191505060405180910390f35b3480156103bd57600080fd5b506103c6610a04565b005b3480156103d457600080fd5b506103dd610ad4565b6040518082815260200191505060405180910390f35b6104356004803603602081101561040957600080fd5b81019080803573ffffffffffffffffffffffffffffffffffffffff169060200190929190505050610535565b005b34801561044357600080fd5b5061044c610b9f565b6040518082815260200191505060405180910390f35b34801561046e57600080fd5b506104b16004803603602081101561048557600080fd5b81019080803573ffffffffffffffffffffffffffffffffffffffff169060200190929190505050610ba5565b005b3480156104bf57600080fd5b506104c8610c7b565b604051808273ffffffffffffffffffffffffffffffffffffffff16815260200191505060405180910390f35b34801561050057600080fd5b50610509610ca1565b604051808273ffffffffffffffffffffffffffffffffffffffff16815260200191505060405180910390f35b600260005414156105ae576040517f08c379a000000000000000000000000000000000000000000000000000000000815260040180806020018281038252601f8152602001807f5265656e7472616e637947756172643a207265656e7472616e742063616c6c0081525060200191505060405180910390fd5b600260008190555060003490506105c58282610cc7565b60006105d082610db6565b90506105e782600454610e4f90919063ffffffff16565b6004819055506105f78382610ed7565b8273ffffffffffffffffffffffffffffffffffffffff163373ffffffffffffffffffffffffffffffffffffffff167f623b3804fa71d67900d064613da8f94b9617215ee90799290593e1745087ad188484604051808381526020018281526020019250505060405180910390a361066e8383610ee5565b610676610ee9565b6106808383610f8f565b5050600160008190555050565b60035481565b60085481565b60095481565b60045481565b600b6020528060005260406000206000915090505481565b6106c5610f93565b73ffffffffffffffffffffffffffffffffffffffff16600560009054906101000a900473ffffffffffffffffffffffffffffffffffffffff1673ffffffffffffffffffffffffffffffffffffffff1614610787576040517f08c379a00000000000000000000000000000000000000000000000000000000081526004018080602001828103825260208152602001807f4f776e61626c653a2063616c6c6572206973206e6f7420746865206f776e657281525060200191505060405180910390fd5b600a60149054906101000a900460ff16156107a157600080fd5b6107a9610f9b565b7f6823b073d48d6e3a7d385eeb601452d680e74bb46afe3255a7d778f3a9b1768160405160405180910390a16001600a60146101000a81548160ff021916908315150217905550565b60006008546004541015905090565b600260009054906101000a900473ffffffffffffffffffffffffffffffffffffffff1681565b61082f610f93565b73ffffffffffffffffffffffffffffffffffffffff16600560009054906101000a900473ffffffffffffffffffffffffffffffffffffffff1673ffffffffffffffffffffffffffffffffffffffff16146108f1576040517f08c379a00000000000000000000000000000000000000000000000000000000081526004018080602001828103825260208152602001807f4f776e61626c653a2063616c6c6572206973206e6f7420746865206f776e657281525060200191505060405180910390fd5b600073ffffffffffffffffffffffffffffffffffffffff16600560009054906101000a900473ffffffffffffffffffffffffffffffffffffffff1673ffffffffffffffffffffffffffffffffffffffff167f8be0079c531659141344cd1fd0a4f28419497f9722a3daafe3b4186f6b6457e060405160405180910390a36000600560006101000a81548173ffffffffffffffffffffffffffffffffffffffff021916908373ffffffffffffffffffffffffffffffffffffffff160217905550565b60006009546004541015905090565b600a60149054906101000a900460ff1681565b6000600560009054906101000a900473ffffffffffffffffffffffffffffffffffffffff16905090565b60065481565b600a60149054906101000a900460ff16610a1d57600080fd5b610a256109b2565b15610a2f57600080fd5b600a60009054906101000a900473ffffffffffffffffffffffffffffffffffffffff1673ffffffffffffffffffffffffffffffffffffffff1663fa89401a336040518263ffffffff1660e01b8152600401808273ffffffffffffffffffffffffffffffffffffffff168152602001915050600060405180830381600087803b158015610aba57600080fd5b505af1158015610ace573d6000803e3d6000fd5b50505050565b6000600160009054906101000a900473ffffffffffffffffffffffffffffffffffffffff1673ffffffffffffffffffffffffffffffffffffffff166370a08231306040518263ffffffff1660e01b8152600401808273ffffffffffffffffffffffffffffffffffffffff16815260200191505060206040518083038186803b158015610b5f57600080fd5b505afa158015610b73573d6000803e3d6000fd5b505050506040513d6020811015610b8957600080fd5b8101908080519060200190929190505050905090565b60075481565b610bad610f93565b73ffffffffffffffffffffffffffffffffffffffff16600560009054906101000a900473ffffffffffffffffffffffffffffffffffffffff1673ffffffffffffffffffffffffffffffffffffffff1614610c6f576040517f08c379a00000000000000000000000000000000000000000000000000000000081526004018080602001828103825260208152602001807f4f776e61626c653a2063616c6c6572206973206e6f7420746865206f776e657281525060200191505060405180910390fd5b610c78816110b4565b50565b600a60009054906101000a900473ffffffffffffffffffffffffffffffffffffffff1681565b600160009054906101000a900473ffffffffffffffffffffffffffffffffffffffff1681565b610cd182826111fa565b600854610ce982600454610e4f90919063ffffffff16565b1115610cf457600080fd5b6000600b60008473ffffffffffffffffffffffffffffffffffffffff1673ffffffffffffffffffffffffffffffffffffffff1681526020019081526020016000205490506000610d4d8383610e4f90919063ffffffff16565b90506006548110158015610d6357506007548111155b610d6c57600080fd5b80600b60008673ffffffffffffffffffffffffffffffffffffffff1673ffffffffffffffffffffffffffffffffffffffff1681526020019081526020016000208190555050505050565b600080610dce600354846112fb90919063ffffffff16565b905060008111610e46576040517f08c379a000000000000000000000000000000000000000000000000000000000815260040180806020018281038252601d8152602001807f4c657373207468616e206d696e696d756d20616d6f756e74207061696400000081525060200191505060405180910390fd5b80915050919050565b600080828401905083811015610ecd576040517f08c379a000000000000000000000000000000000000000000000000000000000815260040180806020018281038252601b8152602001807f536166654d6174683a206164646974696f6e206f766572666c6f77000000000081525060200191505060405180910390fd5b8091505092915050565b610ee18282611381565b5050565b5050565b600a60009054906101000a900473ffffffffffffffffffffffffffffffffffffffff1673ffffffffffffffffffffffffffffffffffffffff1663f340fa0134336040518363ffffffff1660e01b8152600401808273ffffffffffffffffffffffffffffffffffffffff1681526020019150506000604051808303818588803b158015610f7457600080fd5b505af1158015610f88573d6000803e3d6000fd5b5050505050565b5050565b600033905090565b610fa36109b2565b1561102f57600a60009054906101000a900473ffffffffffffffffffffffffffffffffffffffff1673ffffffffffffffffffffffffffffffffffffffff166343d726d66040518163ffffffff1660e01b8152600401600060405180830381600087803b15801561101257600080fd5b505af1158015611026573d6000803e3d6000fd5b505050506110b2565b600a60009054906101000a900473ffffffffffffffffffffffffffffffffffffffff1673ffffffffffffffffffffffffffffffffffffffff16638c52dc416040518163ffffffff1660e01b8152600401600060405180830381600087803b15801561109957600080fd5b505af11580156110ad573d6000803e3d6000fd5b505050505b565b600073ffffffffffffffffffffffffffffffffffffffff168173ffffffffffffffffffffffffffffffffffffffff16141561113a576040517f08c379a00000000000000000000000000000000000000000000000000000000081526004018080602001828103825260268152602001806114556026913960400191505060405180910390fd5b8073ffffffffffffffffffffffffffffffffffffffff16600560009054906101000a900473ffffffffffffffffffffffffffffffffffffffff1673ffffffffffffffffffffffffffffffffffffffff167f8be0079c531659141344cd1fd0a4f28419497f9722a3daafe3b4186f6b6457e060405160405180910390a380600560006101000a81548173ffffffffffffffffffffffffffffffffffffffff021916908373ffffffffffffffffffffffffffffffffffffffff16021790555050565b600073ffffffffffffffffffffffffffffffffffffffff168273ffffffffffffffffffffffffffffffffffffffff161415611280576040517f08c379a000000000000000000000000000000000000000000000000000000000815260040180806020018281038252602a81526020018061149c602a913960400191505060405180910390fd5b60008114156112f7576040517f08c379a00000000000000000000000000000000000000000000000000000000081526004018080602001828103825260198152602001807f43726f776473616c653a20776569416d6f756e7420697320300000000000000081525060200191505060405180910390fd5b5050565b60008083141561130e576000905061137b565b600082840290508284828161131f57fe5b0414611376576040517f08c379a000000000000000000000000000000000000000000000000000000000815260040180806020018281038252602181526020018061147b6021913960400191505060405180910390fd5b809150505b92915050565b600160009054906101000a900473ffffffffffffffffffffffffffffffffffffffff1673ffffffffffffffffffffffffffffffffffffffff1663a9059cbb83836040518363ffffffff1660e01b8152600401808373ffffffffffffffffffffffffffffffffffffffff16815260200182815260200192505050602060405180830381600087803b15801561141457600080fd5b505af1158015611428573d6000803e3d6000fd5b505050506040513d602081101561143e57600080fd5b810190808051906020019092919050505050505056fe4f776e61626c653a206e6577206f776e657220697320746865207a65726f2061646472657373536166654d6174683a206d756c7469706c69636174696f6e206f766572666c6f7743726f776473616c653a2062656e656669636961727920697320746865207a65726f2061646472657373a2646970667358221220d49615cc160800f0d02497a576d5c10a1781fdc5cebc6907a3609b295923e84964736f6c634300060c0033608060405234801561001057600080fd5b50604051610f75380380610f758339818101604052602081101561003357600080fd5b8101908080519060200190929190505050600061005461019760201b60201c565b9050806000806101000a81548173ffffffffffffffffffffffffffffffffffffffff021916908373ffffffffffffffffffffffffffffffffffffffff1602179055508073ffffffffffffffffffffffffffffffffffffffff16600073ffffffffffffffffffffffffffffffffffffffff167f8be0079c531659141344cd1fd0a4f28419497f9722a3daafe3b4186f6b6457e060405160405180910390a350600073ffffffffffffffffffffffffffffffffffffffff168173ffffffffffffffffffffffffffffffffffffffff16141561012c57600080fd5b80600260006101000a81548173ffffffffffffffffffffffffffffffffffffffff021916908373ffffffffffffffffffffffffffffffffffffffff1602179055506000600260146101000a81548160ff0219169083600281111561018c57fe5b02179055505061019f565b600033905090565b610dc7806101ae6000396000f3fe6080604052600436106100915760003560e01c8063c19d93fb11610059578063c19d93fb1461015d578063cb13cddb14610193578063f2fde38b146101f8578063f340fa0114610249578063fa89401a1461028d57610091565b806343d726d614610096578063521eb273146100ad578063715018a6146100ee5780638c52dc41146101055780638da5cb5b1461011c575b600080fd5b3480156100a257600080fd5b506100ab6102de565b005b3480156100b957600080fd5b506100c2610492565b604051808273ffffffffffffffffffffffffffffffffffffffff16815260200191505060405180910390f35b3480156100fa57600080fd5b506101036104b8565b005b34801561011157600080fd5b5061011a61063e565b005b34801561012857600080fd5b5061013161078a565b604051808273ffffffffffffffffffffffffffffffffffffffff16815260200191505060405180910390f35b34801561016957600080fd5b506101726107b3565b6040518082600281111561018257fe5b815260200191505060405180910390f35b34801561019f57600080fd5b506101e2600480360360208110156101b657600080fd5b81019080803573ffffffffffffffffffffffffffffffffffffffff1690602001909291905050506107c6565b6040518082815260200191505060405180910390f35b34801561020457600080fd5b506102476004803603602081101561021b57600080fd5b81019080803573ffffffffffffffffffffffffffffffffffffffff1690602001909291905050506107de565b005b61028b6004803603602081101561025f57600080fd5b81019080803573ffffffffffffffffffffffffffffffffffffffff1690602001909291905050506108b2565b005b34801561029957600080fd5b506102dc600480360360208110156102b057600080fd5b81019080803573ffffffffffffffffffffffffffffffffffffffff169060200190929190505050610a44565b005b6102e6610b98565b73ffffffffffffffffffffffffffffffffffffffff1660008054906101000a900473ffffffffffffffffffffffffffffffffffffffff1673ffffffffffffffffffffffffffffffffffffffff16146103a6576040517f08c379a00000000000000000000000000000000000000000000000000000000081526004018080602001828103825260208152602001807f4f776e61626c653a2063616c6c6572206973206e6f7420746865206f776e657281525060200191505060405180910390fd5b600060028111156103b357fe5b600260149054906101000a900460ff1660028111156103ce57fe5b146103d857600080fd5b60028060146101000a81548160ff021916908360028111156103f657fe5b02179055507f1cdde67b72a90f19919ac732a437ac2f7a10fc128d28c2a6e525d89ce5cd9d3a60405160405180910390a1600260009054906101000a900473ffffffffffffffffffffffffffffffffffffffff1673ffffffffffffffffffffffffffffffffffffffff166108fc479081150290604051600060405180830381858888f1935050505015801561048f573d6000803e3d6000fd5b50565b600260009054906101000a900473ffffffffffffffffffffffffffffffffffffffff1681565b6104c0610b98565b73ffffffffffffffffffffffffffffffffffffffff1660008054906101000a900473ffffffffffffffffffffffffffffffffffffffff1673ffffffffffffffffffffffffffffffffffffffff1614610580576040517f08c379a00000000000000000000000000000000000000000000000000000000081526004018080602001828103825260208152602001807f4f776e61626c653a2063616c6c6572206973206e6f7420746865206f776e657281525060200191505060405180910390fd5b600073ffffffffffffffffffffffffffffffffffffffff1660008054906101000a900473ffffffffffffffffffffffffffffffffffffffff1673ffffffffffffffffffffffffffffffffffffffff167f8be0079c531659141344cd1fd0a4f28419497f9722a3daafe3b4186f6b6457e060405160405180910390a360008060006101000a81548173ffffffffffffffffffffffffffffffffffffffff021916908373ffffffffffffffffffffffffffffffffffffffff160217905550565b610646610b98565b73ffffffffffffffffffffffffffffffffffffffff1660008054906101000a900473ffffffffffffffffffffffffffffffffffffffff1673ffffffffffffffffffffffffffffffffffffffff1614610706576040517f08c379a00000000000000000000000000000000000000000000000000000000081526004018080602001828103825260208152602001807f4f776e61626c653a2063616c6c6572206973206e6f7420746865206f776e657281525060200191505060405180910390fd5b6000600281111561071357fe5b600260149054906101000a900460ff16600281111561072e57fe5b1461073857600080fd5b6001600260146101000a81548160ff0219169083600281111561075757fe5b02179055507f599d8e5a83cffb867d051598c4d70e805d59802d8081c1c7d6dffc5b6aca2b8960405160405180910390a1565b60008060009054906101000a900473ffffffffffffffffffffffffffffffffffffffff16905090565b600260149054906101000a900460ff1681565b60016020528060005260406000206000915090505481565b6107e6610b98565b73ffffffffffffffffffffffffffffffffffffffff1660008054906101000a900473ffffffffffffffffffffffffffffffffffffffff1673ffffffffffffffffffffffffffffffffffffffff16146108a6576040517f08c379a00000000000000000000000000000000000000000000000000000000081526004018080602001828103825260208152602001807f4f776e61626c653a2063616c6c6572206973206e6f7420746865206f776e657281525060200191505060405180910390fd5b6108af81610ba0565b50565b6108ba610b98565b73ffffffffffffffffffffffffffffffffffffffff1660008054906101000a900473ffffffffffffffffffffffffffffffffffffffff1673ffffffffffffffffffffffffffffffffffffffff161461097a576040517f08c379a00000000000000000000000000000000000000000000000000000000081526004018080602001828103825260208152602001807f4f776e61626c653a2063616c6c6572206973206e6f7420746865206f776e657281525060200191505060405180910390fd5b6000600281111561098757fe5b600260149054906101000a900460ff1660028111156109a257fe5b146109ac57600080fd5b6109fe34600160008473ffffffffffffffffffffffffffffffffffffffff1673ffffffffffffffffffffffffffffffffffffffff16815260200190815260200160002054610ce390919063ffffffff16565b600160008373ffffffffffffffffffffffffffffffffffffffff1673ffffffffffffffffffffffffffffffffffffffff1681526020019081526020016000208190555050565b60016002811115610a5157fe5b600260149054906101000a900460ff166002811115610a6c57fe5b14610a7657600080fd5b6000600160008373ffffffffffffffffffffffffffffffffffffffff1673ffffffffffffffffffffffffffffffffffffffff1681526020019081526020016000205490506000600160008473ffffffffffffffffffffffffffffffffffffffff1673ffffffffffffffffffffffffffffffffffffffff168152602001908152602001600020819055508173ffffffffffffffffffffffffffffffffffffffff166108fc829081150290604051600060405180830381858888f19350505050158015610b45573d6000803e3d6000fd5b508173ffffffffffffffffffffffffffffffffffffffff167fd7dee2702d63ad89917b6a4da9981c90c4d24f8c2bdfd64c604ecae57d8d0651826040518082815260200191505060405180910390a25050565b600033905090565b600073ffffffffffffffffffffffffffffffffffffffff168173ffffffffffffffffffffffffffffffffffffffff161415610c26576040517f08c379a0000000000000000000000000000000000000000000000000000000008152600401808060200182810382526026815260200180610d6c6026913960400191505060405180910390fd5b8073ffffffffffffffffffffffffffffffffffffffff1660008054906101000a900473ffffffffffffffffffffffffffffffffffffffff1673ffffffffffffffffffffffffffffffffffffffff167f8be0079c531659141344cd1fd0a4f28419497f9722a3daafe3b4186f6b6457e060405160405180910390a3806000806101000a81548173ffffffffffffffffffffffffffffffffffffffff021916908373ffffffffffffffffffffffffffffffffffffffff16021790555050565b600080828401905083811015610d61576040517f08c379a000000000000000000000000000000000000000000000000000000000815260040180806020018281038252601b8152602001807f536166654d6174683a206164646974696f6e206f766572666c6f77000000000081525060200191505060405180910390fd5b809150509291505056fe4f776e61626c653a206e6577206f776e657220697320746865207a65726f2061646472657373a2646970667358221220cc7b9e6cb17aa21c174975f9b27ff9439f53e29d8265b76d380f64078773904564736f6c634300060c0033",
  "immutableReferences": {},
  "source": "pragma solidity ^0.6.12;\n\nimport \"@pancakeswap/pancake-swap-lib/contracts/access/Ownable.sol\";\nimport \"./crowdsale/Crowdsale.sol\";\nimport \"./crowdsale/RefundVault.sol\";\n\n\ncontract SokuCrowdsale is Crowdsale, Ownable {\n    using SafeMath for uint256;\n\n    uint256 public investorMinCap = 160000000000000000; // 0.16BNB\n    uint256 public investorHardCap = 100000000000000000000;  // 100BNB\n\n    uint256 public cap;\n\n    // minimum amount of funds to be raised in weis\n    uint256 public goal;\n    // refund vault used to hold funds while crowdsale is running\n    RefundVault public vault;\n\n    bool public isFinalized = false;\n\n    mapping(address => uint256) public contributions;\n\n    event Finalized();\n\n    /**\n     * @dev Constructor, creates RefundVault.\n     * @param _goal Funding goal\n     */\n    constructor(\n        uint256 _rate,            // rate, in Sokubits   12000 for $0.05 token price\n        address payable _wallet,  // wallet to send BNB\n        BEP20 _token,            // the token\n        uint256 _goal,           // the minimum goal, in wei   50e18 for $30,000\n        uint256 _cap             // // total cap, in wei     833.3333e18 for $500,000\n    )\n        Crowdsale(_rate, _wallet, _token)\n        public\n    {\n        // nice! this crowdsale will, if it doesn't hit `goal`, allow everyone to get their money back\n        // by calling claimRefund(...)\n        cap = _cap;\n\n        require(_goal > 0);\n        vault = new RefundVault(wallet);\n        goal = _goal;\n    }\n\n    /**\n     * @dev Checks whether the cap has been reached.\n     * @return Whether the cap was reached\n     */\n    function capReached() public view returns (bool) {\n        return weiRaised >= cap;\n    }\n\n    /**\n     * @dev Checks the amount of tokens left in the allowance.\n     * @return Amount of tokens left in the allowance\n     */\n    function remainingTokens() public view returns (uint256) {\n        return token.balanceOf(address(this));\n    }\n\n    /**\n     * @dev Investors can claim refunds here if crowdsale is unsuccessful\n     */\n    function claimRefund() public {\n        require(isFinalized);\n        require(!goalReached());\n\n        vault.refund(msg.sender);\n    }\n\n    /**\n     * @dev Checks whether funding goal was reached.\n     * @return Whether funding goal was reached\n     */\n    function goalReached() public view returns (bool) {\n        return weiRaised >= goal;\n    }\n\n    /**\n     * @dev Must be called after crowdsale ends, to do some extra finalization\n     * work. Calls the contract's finalization function.\n     */\n    function finalize() onlyOwner public {\n        require(!isFinalized);\n\n        finalization();\n        emit Finalized();\n\n        isFinalized = true;\n    }\n\n    /**\n     * @dev Can be overridden to add finalization logic. The overriding function\n     * should call super.finalization() to ensure the chain of finalization is\n     * executed entirely.\n     */\n    function finalization() internal {\n        if (goalReached()) {\n            vault.close();\n        } else {\n            vault.enableRefunds();\n        }\n    }\n\n    /**\n     * @dev Extend parent behavior requiring purchase to respect the funding cap.\n     * @param _beneficiary Token purchaser\n     * @param _weiAmount Amount of wei contributed\n     */\n    function _preValidatePurchase(\n        address _beneficiary,\n        uint256 _weiAmount\n    )\n        internal\n        override\n    {\n        super._preValidatePurchase(_beneficiary, _weiAmount);\n        require(weiRaised.add(_weiAmount) <= cap);\n    \n        uint256 _existingContribution = contributions[_beneficiary];\n        \n        uint256 _newContribution = _existingContribution.add(_weiAmount);\n        require(_newContribution >= investorMinCap && _newContribution <= investorHardCap);\n        contributions[_beneficiary] = _newContribution;\n    }\n\n    /**\n     * @dev Overrides Crowdsale fund forwarding, sending funds to vault.\n     */\n    function _forwardFunds() override internal {\n        vault.deposit{value: msg.value}(msg.sender);\n    }\n}",
  "sourcePath": "/Volumes/WORK/Soku/ICO/contracts/SokuCrowdSale.sol",
  "compiler": {
    "name": "solc",
    "version": "0.6.12+commit.27d51765.Emscripten.clang"
  },
  "schemaVersion": "3.3.4",
  "updatedAt": "2021-05-02T18:53:39.404Z",
  "devdoc": {
    "kind": "dev",
    "methods": {
      "buyTokens(address)": {
        "details": "low level token purchase ***DO NOT OVERRIDE***",
        "params": {
          "_beneficiary": "Address performing the token purchase"
        }
      },
      "capReached()": {
        "details": "Checks whether the cap has been reached.",
        "returns": {
          "_0": "Whether the cap was reached"
        }
      },
      "claimRefund()": {
        "details": "Investors can claim refunds here if crowdsale is unsuccessful"
      },
      "constructor": {
        "details": "Constructor, creates RefundVault.",
        "params": {
          "_goal": "Funding goal"
        }
      },
      "finalize()": {
        "details": "Must be called after crowdsale ends, to do some extra finalization work. Calls the contract's finalization function."
      },
      "goalReached()": {
        "details": "Checks whether funding goal was reached.",
        "returns": {
          "_0": "Whether funding goal was reached"
        }
      },
      "owner()": {
        "details": "Returns the address of the current owner."
      },
      "remainingTokens()": {
        "details": "Checks the amount of tokens left in the allowance.",
        "returns": {
          "_0": "Amount of tokens left in the allowance"
        }
      },
      "renounceOwnership()": {
        "details": "Leaves the contract without owner. It will not be possible to call `onlyOwner` functions anymore. Can only be called by the current owner. NOTE: Renouncing ownership will leave the contract without an owner, thereby removing any functionality that is only available to the owner."
      },
      "transferOwnership(address)": {
        "details": "Transfers ownership of the contract to a new account (`newOwner`). Can only be called by the current owner."
      }
    },
    "version": 1
  },
  "userdoc": {
    "events": {
      "TokenPurchase(address,address,uint256,uint256)": {
        "notice": "Event for token purchase logging"
      }
    },
    "kind": "user",
    "methods": {},
    "version": 1
  }
}